{
  "contractName": "Election",
  "abi": [
    {
      "inputs": [],
      "stateMutability": "nonpayable",
      "type": "constructor"
    },
    {
      "anonymous": false,
      "inputs": [
        {
          "indexed": false,
          "internalType": "string",
          "name": "value",
          "type": "string"
        }
      ],
      "name": "Log",
      "type": "event"
    },
    {
      "anonymous": false,
      "inputs": [
        {
          "indexed": false,
          "internalType": "uint256",
          "name": "value",
          "type": "uint256"
        }
      ],
      "name": "Log1",
      "type": "event"
    },
    {
      "anonymous": false,
      "inputs": [
        {
          "indexed": false,
          "internalType": "address",
          "name": "value",
          "type": "address"
        }
      ],
      "name": "Log2",
      "type": "event"
    },
    {
      "anonymous": false,
      "inputs": [
        {
          "indexed": false,
          "internalType": "string",
          "name": "mine",
          "type": "string"
        },
        {
          "indexed": true,
          "internalType": "uint256",
          "name": "_candidateId",
          "type": "uint256"
        }
      ],
      "name": "votedEvent",
      "type": "event"
    },
    {
      "inputs": [
        {
          "internalType": "uint256",
          "name": "",
          "type": "uint256"
        }
      ],
      "name": "candidates",
      "outputs": [
        {
          "internalType": "uint256",
          "name": "id",
          "type": "uint256"
        },
        {
          "internalType": "string",
          "name": "name",
          "type": "string"
        },
        {
          "internalType": "uint256",
          "name": "voteCount",
          "type": "uint256"
        }
      ],
      "stateMutability": "view",
      "type": "function",
      "constant": true
    },
    {
      "inputs": [],
      "name": "candidatesCount",
      "outputs": [
        {
          "internalType": "uint256",
          "name": "",
          "type": "uint256"
        }
      ],
      "stateMutability": "view",
      "type": "function",
      "constant": true
    },
    {
      "inputs": [],
      "name": "name1",
      "outputs": [
        {
          "internalType": "string",
          "name": "",
          "type": "string"
        }
      ],
      "stateMutability": "view",
      "type": "function",
      "constant": true
    },
    {
      "inputs": [
        {
          "internalType": "address",
          "name": "",
          "type": "address"
        }
      ],
      "name": "voters",
      "outputs": [
        {
          "internalType": "bool",
          "name": "",
          "type": "bool"
        }
      ],
      "stateMutability": "view",
      "type": "function",
      "constant": true
    },
    {
      "inputs": [
        {
          "internalType": "uint256",
          "name": "_candidateId",
          "type": "uint256"
        }
      ],
      "name": "vote",
      "outputs": [],
      "stateMutability": "nonpayable",
      "type": "function"
    },
    {
      "inputs": [],
      "name": "winner",
      "outputs": [
        {
          "internalType": "string",
          "name": "",
          "type": "string"
        }
      ],
      "stateMutability": "nonpayable",
      "type": "function"
    }
  ],
  "bytecode": "0x60806040523480156200001157600080fd5b50620000586040518060400160405280600d81526020017f4e6172656e647261204d6f646900000000000000000000000000000000000000815250620000a460201b60201c565b6200009e6040518060400160405280600e81526020017f4d616e6d6f68616e2073696e6768000000000000000000000000000000000000815250620000a460201b60201c565b620002c4565b600260008154620000b59062000218565b919050819055506040518060600160405280600254815260200182815260200160008152506001600060025481526020019081526020016000206000820151816000015560208201518160010190805190602001906200011792919062000128565b506040820151816002015590505050565b8280546200013690620001e2565b90600052602060002090601f0160209004810192826200015a5760008555620001a6565b82601f106200017557805160ff1916838001178555620001a6565b82800160010185558215620001a6579182015b82811115620001a557825182559160200191906001019062000188565b5b509050620001b59190620001b9565b5090565b5b80821115620001d4576000816000905550600101620001ba565b5090565b6000819050919050565b60006002820490506001821680620001fb57607f821691505b6020821081141562000212576200021162000295565b5b50919050565b60006200022582620001d8565b91507fffffffffffffffffffffffffffffffffffffffffffffffffffffffffffffffff8214156200025b576200025a62000266565b5b600182019050919050565b7f4e487b7100000000000000000000000000000000000000000000000000000000600052601160045260246000fd5b7f4e487b7100000000000000000000000000000000000000000000000000000000600052602260045260246000fd5b61097580620002d46000396000f3fe608060405234801561001057600080fd5b50600436106100625760003560e01c80630121b93f146100675780632d35a8a2146100835780633477ee2e146100a157806347c8efa7146100d3578063a3ec138d146100f1578063dfbf53ae14610121575b600080fd5b610081600480360381019061007c919061060e565b61013f565b005b61008b61026c565b604051610098919061070e565b60405180910390f35b6100bb60048036038101906100b6919061060e565b610272565b6040516100ca93929190610729565b60405180910390f35b6100db610324565b6040516100e891906106cc565b60405180910390f35b61010b600480360381019061010691906105e5565b6103b2565b60405161011891906106b1565b60405180910390f35b6101296103d2565b60405161013691906106cc565b60405180910390f35b6000803373ffffffffffffffffffffffffffffffffffffffff1673ffffffffffffffffffffffffffffffffffffffff16815260200190815260200160002060009054906101000a900460ff161561019557600080fd5b6000811180156101a757506002548111155b6101b057600080fd5b60016000803373ffffffffffffffffffffffffffffffffffffffff1673ffffffffffffffffffffffffffffffffffffffff16815260200190815260200160002060006101000a81548160ff02191690831515021790555060016000828152602001908152602001600020600201600081548092919061022e90610830565b9190505550807f8f0f7d03219948a2b8739cb4611b7300a297fbae05e48e93b4b862dd52211579604051610261906106ee565b60405180910390a250565b60025481565b600160205280600052604060002060009150905080600001549080600101805461029b906107fe565b80601f01602080910402602001604051908101604052809291908181526020018280546102c7906107fe565b80156103145780601f106102e957610100808354040283529160200191610314565b820191906000526020600020905b8154815290600101906020018083116102f757829003601f168201915b5050505050908060020154905083565b60038054610331906107fe565b80601f016020809104026020016040519081016040528092919081815260200182805461035d906107fe565b80156103aa5780601f1061037f576101008083540402835291602001916103aa565b820191906000526020600020905b81548152906001019060200180831161038d57829003601f168201915b505050505081565b60006020528060005260406000206000915054906101000a900460ff1681565b606060005b600181116104d4576002600160008381526020019081526020016000206002015411156104c157600160008281526020019081526020016000206001016003908054610422906107fe565b61042d929190610511565b506003805461043b906107fe565b80601f0160208091040260200160405190810160405280929190818152602001828054610467906107fe565b80156104b45780601f10610489576101008083540402835291602001916104b4565b820191906000526020600020905b81548152906001019060200180831161049757829003601f168201915b505050505091505061050e565b80806104cc90610830565b9150506103d7565b6040518060400160405280601081526020017f4e6f206f6e652069732077696e6e6572000000000000000000000000000000008152509150505b90565b82805461051d906107fe565b90600052602060002090601f01602090048101928261053f576000855561058d565b82601f10610550578054855561058d565b8280016001018555821561058d57600052602060002091601f016020900482015b8281111561058c578254825591600101919060010190610571565b5b50905061059a919061059e565b5090565b5b808211156105b757600081600090555060010161059f565b5090565b6000813590506105ca81610911565b92915050565b6000813590506105df81610928565b92915050565b6000602082840312156105f757600080fd5b6000610605848285016105bb565b91505092915050565b60006020828403121561062057600080fd5b600061062e848285016105d0565b91505092915050565b61064081610795565b82525050565b600061065182610767565b61065b8185610772565b935061066b8185602086016107cb565b610674816108d7565b840191505092915050565b600061068c600f83610772565b9150610697826108e8565b602082019050919050565b6106ab816107c1565b82525050565b60006020820190506106c66000830184610637565b92915050565b600060208201905081810360008301526106e68184610646565b905092915050565b600060208201905081810360008301526107078161067f565b9050919050565b600060208201905061072360008301846106a2565b92915050565b600060608201905061073e60008301866106a2565b81810360208301526107508185610646565b905061075f60408301846106a2565b949350505050565b600081519050919050565b600082825260208201905092915050565b600061078e826107a1565b9050919050565b60008115159050919050565b600073ffffffffffffffffffffffffffffffffffffffff82169050919050565b6000819050919050565b60005b838110156107e95780820151818401526020810190506107ce565b838111156107f8576000848401525b50505050565b6000600282049050600182168061081657607f821691505b6020821081141561082a576108296108a8565b5b50919050565b600061083b826107c1565b91507fffffffffffffffffffffffffffffffffffffffffffffffffffffffffffffffff82141561086e5761086d610879565b5b600182019050919050565b7f4e487b7100000000000000000000000000000000000000000000000000000000600052601160045260246000fd5b7f4e487b7100000000000000000000000000000000000000000000000000000000600052602260045260246000fd5b6000601f19601f8301169050919050565b7f766f746564207269676874206e6f770000000000000000000000000000000000600082015250565b61091a81610783565b811461092557600080fd5b50565b610931816107c1565b811461093c57600080fd5b5056fea264697066735822122050a25a868155afaac969097823ca622a677b7e6febb2aaa09cf1b6d9083bd64d64736f6c63430008040033",
  "immutableReferences": {},
  "source": "// SPDX-License-Identifier: MIT\npragma solidity >=0.7.0 <=0.9.0;\n\ncontract Election {\n\n    struct Candidate{\n        uint id;\n        string name;\n        uint voteCount;\n    }\n\n    mapping(address => bool) public voters;\n    mapping(uint => Candidate) public candidates;\n\n    uint public candidatesCount;\n    string public name1;\n\n    event Log(string value); \n    event Log1(uint value); \n    event Log2(address value);\n    event votedEvent(string mine,uint indexed _candidateId);\n\n    constructor () {\n        addCandidate(\"Narendra Modi\");\n        addCandidate(\"Manmohan singh\");\n    }\n\n    function addCandidate(string memory _name) private {\n        ++candidatesCount;\n        candidates[candidatesCount] = Candidate(candidatesCount,_name,0);\n    }\n\n    function vote(uint _candidateId) public{\n        require (!voters[msg.sender]);\n\n        require(_candidateId >0 && _candidateId <= candidatesCount);\n\n        //require block.timestamp >= candidates.createdTime +30)\n\n        voters[msg.sender] = true;\n\n        candidates[_candidateId].voteCount++;\n\n        emit votedEvent(\"voted right now\", _candidateId);\n\n    }\n\n    function winner() public returns(string memory){\n        uint i;\n        for(i=0; i<=1; i++) {\n           // emit Log2(candidates); \n            if(candidates[i].voteCount > 2) {\n                name1 = candidates[i].name;\n                return name1;\n             }\n        }\n        return \"No one is winner\";         \n    }\n\n}",
  "sourcePath": "/home/priyapandit/Projects/blockchain/Election/contracts/Election.sol",
  "compiler": {
    "name": "solc",
    "version": "0.8.4+commit.c7e474f2.Emscripten.clang"
  },
  "schemaVersion": "3.4.10",
  "updatedAt": "2022-09-27T11:09:06.082Z",
  "networkType": "ethereum",
  "devdoc": {
    "kind": "dev",
    "methods": {},
    "version": 1
  },
  "userdoc": {
    "kind": "user",
    "methods": {},
    "version": 1
  }
}